:020000040800F2
:1000000088070020350200083D0200083F02000872
:1000100041020008430200084502000800000000F9
:10002000000000000000000000000000470200087F
:1000300049020008000000004B0200084D020008C1
:100040004F0200084F0200084F0200084F0200084C
:100050004F0200084F0200084F0200084F0200083C
:100060004F0200084F0200084F0200084F0200082C
:100070004F0200084F0200084F0200084F0200081C
:100080004F0200084F0200084F0200084F0200080C
:100090004F0200084F0200084F0200084F020008FC
:1000A0004F0200084F0200084F0200084F020008EC
:1000B000A93700084F0200084F0200084F0200084D
:1000C0004F0200084F0200084F0200084F020008CC
:1000D0004F0200084F0200084F0200084F020008BC
:1000E0004F0200084F0200084F02000800F002F81B
:1000F00000F090F80AA090E8000C82448344AAF132
:100100000107DA4501D100F085F8AFF2090EBAE82F
:100110000F0013F0010F18BFFB1A43F0010318473B
:100120001C4800003C480000103A24BF78C878C141
:10013000FAD8520724BF30C830C144BF04680C60ED
:10014000704700000023002400250026103A28BF35
:1001500078C1FBD8520728BF30C148BF0B60704739
:100160006E2900F03F81702900F08182662904F039
:10017000D982652904F0D682672904F0D3826129E7
:1001800004F0D28203681B0A28BF41F0800169296C
:1001900000F0EC80642900F0E980752900F0E68029
:1001A0006F2900F00F82782900F04D82E92900F0D4
:1001B000A981E42900F0A681F52900F0A381EF29A7
:1001C00000F00C82F82900F04C820368DB0928BF9C
:1001D00041F08001632900F04D87732900F05287B8
:1001E000E32900F05D87F32900F062870020704763
:1001F0001FB500F0B3FF04000020002104F07CFADA
:10020000401C60600020002104F060FAE0601FBD27
:1002100010B510BD00F074FF1146FFF7E9FF03F0C1
:100220009BFC01F051F803B4FFF7F2FF03BC01F0AF
:1002300099F800000948804709480047FEE7FEE7B3
:10024000FEE7FEE7FEE7FEE7FEE7FEE7FEE7FEE786
:1002500004480549054A064B70470000413700082D
:10026000ED00000888010020880700208803002096
:10027000880300200FB41CB5084B06AA7B446946CE
:100280000090059800F0C7F804460020694600F089
:10029000D5F820461CBC5DF814FB0000BD01000031
:1002A00070477047704770B5044685690068C1069D
:1002B00001D5302600E02026C00707D070BDD4E964
:1002C000012130469047206A401C20626D1EF6D501
:1002D00070BD70B5044685690078C00707D170BD50
:1002E000D4E9012120209047206A401C20626D1E25
:1002F000F6D570BD09684A0501D540B27047C905F9
:10030000FCD500B2704709684A0501D5C0B27047F4
:10031000C905FCD580B2704770B50C460546012A68
:1003200005D02878800600D5EA69002302E0012381
:1003300005E05B1C934202D2E05C0028F9D1A86979
:10034000E618C01AA861286A184428622846FFF7F0
:10035000AAFF04E0D5E9012114F8010B9047B4424B
:10036000F8D32846FFF7B5FF70BD00002DE9F04136
:100370000646002410687529314616A510D0FFF7EF
:10038000B9FF002802DA404213A507E031688A0766
:1003900001D512A502E0490704D511A5012401E009
:1003A000FFF7B1FF00210A2206F1240709E0B0FBA4
:1003B000F2FCB0FBF2F302FB1C003030785418461C
:1003C000491C0028F3D123462A463046BDE8F041B7
:1003D00000F061BA000000002D0000002B000000BA
:1003E0002000000011680268006A530501D50870FA
:1003F0000AE0D30501D5088006E0130603D5C2172D
:10040000C1E9000200E008600120704701694A1C50
:1004100002610878704700B58FB0CDE90131002145
:10042000059105497944CDE903101146684600F06D
:1004300029F90FB000BD0000E5FFFFFF0A6802F8D0
:10044000010B0A60704700002DE9FF5F15468A46E0
:100450000446DFF8AC80F8440027D8E900103E4697
:10046000CDE9001010E03AF816106A4602A800F034
:1004700023FE411C07D02178890603D5E26939188B
:1004800091420DD80744761C2078800602D5E06999
:10049000B84205DDAE42E6DB3AF816000028E2D1AC
:1004A000A069C01BA0612046FFF7FDFED8E900103F
:1004B000CDE90010002017E03AF818106A4602A8AB
:1004C00000F0FAFDB0F1FF3F81460BD000250DF1A1
:1004D000080B05E0D4E901211BF8050090476D1CCD
:1004E0004D45F7D308F10100B0428046E4DB206AB5
:1004F000384420622046FFF7ECFEBDE8FF9F000075
:10050000D24200002DE9F0418046D21D22F00702C0
:100510000025D2E90002F52915A614D0011E72F1BA
:10052000000106DA0023D0EB030063EB020211A600
:1005300008E0D8F800108B0701D50FA602E04907A4
:1005400001D50EA601251146002408F1240704E078
:1005500000F05CF930323A55641C50EA0102F7D1E0
:100560002B46324621464046BDE8F04100F093B9A3
:10057000000000002D0000002B0000002000000003
:1005800030B4002100F1240408E002F00705D2088D
:10059000303542EA4372DB086554491C52EA0305D0
:1005A000F3D10468002310A2250708D504F0200425
:1005B0000C4304D0C46901230CA2641EC46130BC86
:1005C00000F069B910B5044621461068FFF79BFE9C
:1005D00002462046BDE810400023D1E7D21D22F09C
:1005E0000701D1E90023CBE7000000003000000044
:1005F000F0B40D460188090502D5214C7C4402E087
:100600001F4C7C440E34002100F1240608E002F067
:100610000F071209E75D42EA03721B097754491C70
:1006200052EA0307F3D102780023120704D5702D94
:1006300006D009B1022311342246F0BC00F02BB9D8
:1006400001231034F8E770B504460D4621461068C2
:10065000FFF759FE024629462046BDE870400023B8
:10066000C6E7D21D22F00703D3E90023C0E70368E1
:10067000126843F0200303600823C3610023B7E737
:10068000344100002DE9F05F894604464FF0000A2E
:10069000DFF874B1FB44C0F820A02046E168884729
:1006A000002874D0252806D0D4E901219047206A7B
:1006B000401C2062F1E700265F462046E16888473B
:1006C0002028054607DB312D05D2781910F8200CBB
:1006D00008B10643F1E7B00701D526F00406C4F8D7
:1006E0001CA00027C4F818A02A2D09D0284603F022
:1006F000E5FF38B304EB8708303DC8F8185019E01F
:1007000059F8041B204604EB87029161E168884791
:10071000012F054618D1E069002820DA26F02006CE
:100720001DE0D8F8180000EB800005EB40003038E1
:10073000C8F818002046E1688847054603F0BEFF68
:100740000028EED1012F0AD02E2D08D12046E168D5
:1007500088477F1C0546022F46F02006C4DBA069AF
:10076000002803DA404246F00106A061F00701D0FC
:1007700026F010066C2D0BD0682D09D04C2D39D0E9
:100780006A2D35D0742D35D07A2D33D016E038E06F
:10079000E1682F4620468847B842054609D16C2FAC
:1007A00026D04FF48060E16806432046884705461E
:1007B00004E06C2F1AD04FF4807006430DB3A5F1FE
:1007C0004100192802D8203546F400664A462946D9
:1007D000204626604E46FFF7C3FC80B101280BD0AF
:1007E000F61D26F0070000F1080956E74020E4E76F
:1007F0008020D8E70020D6E706F104094DE7284617
:1008000052E7206ABDE8F09FC440000030B5B0F167
:100810000A0271F100034FEA900E4EEA817EB0EBBE
:100820000E0061EB91014FEA101E4EEA017E10EBC3
:100830000E0041EB11114FEA102E4EEA016E10EB43
:100840000E0041EB11214FEA104E4EEA014E10EB23
:100850000E0041EB1141401841F100014FEAD00078
:1008600040EA41704FEAD1014FEA810444EA9074B2
:1008700010EB800544EB01046D1944EB0404521B9A
:10088000A3414FF0000348BF0A3200D530BD401CE1
:1008900041F1000130BD2DE9F0470D4699469246E1
:1008A000044600F124080168880604D5E06921F0B7
:1008B0001001216000E00120A84201DD471B00E09B
:1008C0000027A1697A1902EB0900081AA0612078B3
:1008D000C00602D42046FFF7E6FC002608E0D4E973
:1008E00001211AF806009047206A401C761C2062FD
:1008F0004E45F4DB2078C0060AD52046FFF7D3FC2E
:1009000006E0D4E9012130209047206A401C206293
:10091000381EA7F10107F4DC07E0D4E9012118F83B
:1009200005009047206A401C2062281EA5F10105A1
:10093000F3DC2046FFF7CDFC2078000602D502202C
:10094000BDE8F0870120FBE72DE9FF4F0C461E466E
:100950004FF0FF378BB0D2E90001DDF860800A90DC
:100960008A46C1F30A5505B93D46002108464FF0B5
:100970000000BAF1000F00F4400005DA00EB80003F
:100980004FF4400101EA50004FEA9059B9F1010FCC
:1009900000DDB9460A9850EA4A000ED044F61050DD
:1009A000A5F2FF3545432F14B8F1000F1ED0754254
:1009B000291E1EDDC9F100021CE0B8F1010F4FF045
:1009C000000001D0302103E0F24305E02154401C37
:1009D000B042FBDB30460022002121540B99C1F8C4
:1009E0000880C1E900200FB0BDE8F08FBD1B6D1C71
:1009F000DEE74A4600DA694206A800F0F3FB06ABE0
:100A000093E8070003AB83E8070050460A9903F018
:100A100078FA8DE80700A0F500501F380090039881
:100A2000002D0ADD42F21F014A460844002303A9B3
:100A30000390684603F0E2FC09E0A0F500504A4646
:100A40001F38002303A90390684603F0ECFC8DE8EF
:100A500007000004000C03D04FF0FF30410800E015
:100A60001046B8F1000F03D00022009215461EE098
:100A7000751E05D4FFF7CAFE303262556D1EF9D5DA
:100A8000B3460122084302D000227F1C04E02078F4
:100A9000302801D100227F1E002A099784D01DE052
:100AA000112D07DAFFF7B2FE303262556D1C50EAA5
:100AB0000102F5D1084302D00098C8B10EE0002130
:100AC000681E05E0235C625C63542254401E491C8E
:100AD0008142F7DBAB46A81B401E0990002004F8BA
:100AE0000B000B98099AC0F80880C0E9002B7AE740
:100AF00011264FF0000857E72DE9F04F88460446CD
:100B0000D21D22F0070191B0D1E90001CDE90A011F
:100B100003F0C0FD02460B98C00F01D02D2007E066
:100B20002068810701D52B2002E0202101EAC000C6
:100B3000032A099001D0072A05DB034641462046D7
:100B400000F010FB0BE12078800601D5E06900E0A1
:100B50000620B8F1650F814606D0B8F1660F18D0AF
:100B6000B8F1670F70D131E00020B9F1110F00909A
:100B700001DB112301E009F101030AAA01A90CA874
:100B8000FFF7E2FEDDE90C70002609F1010583465E
:100B900047E001204B4600904FF000470AAA01A908
:100BA0000CA8FFF7D1FEDDE90DB00C995D460026DB
:100BB00010B909F101000D18B9EB050003D4C0F11B
:100BC000FF3609F10105A5EB09002BE0B9F1010F92
:100BD00001DA4FF001090020B9F1110F00904846E9
:100BE00001DD112300E003460AAA01A90CA8FFF7C2
:100BF000ABFEDDE90C704D460026834620780007E9
:100C00000AD4AB4500DA5D4601A8012D04DD411987
:100C100011F8011C302907D04F4502DA17F1040FF3
:100C200004DA012082460FE06D1EEEE7002F02DCA1
:100C3000ED1B3E4403E0781CA84200DD7D1CB81B80
:100C400000F1010A4FF000472078000703D4AA45BD
:100C500001DB4FF0FF3A0021B7F1004F0DF14308DF
:100C60008DF8431024D002202B23002F01DA7F427D
:100C70002D230A21021EA0F1010000DC5FB197FBC9
:100C8000F1FC97FBF1F201FB1C7C17460CF1300CD8
:100C900008F801CDEEE7A8F10100037021880905ED
:100CA00001D5452100E06521A0F1010800F8011CF3
:100CB00009980FA9A1EB0807FF1D00B101204119F8
:100CC00001EBEA70A1693844081A401EA06120783F
:100CD000C00602D42046FFF7E6FA099828B1D4E905
:100CE00001219047206A401C20622078C00622D54E
:100CF0002046FFF7D8FA1EE0002E04DBB34502DDE4
:100D000001A8805D00E03020D4E901219047206AED
:100D1000401C2062761CAAF101005FEA000A0AD199
:100D200000F01CFAC0680168405CD4E901219047DA
:100D3000206A401C2062281EA5F10105DCDC07E0CA
:100D4000D4E9012118F8010B9047206A401C206269
:100D5000381EA7F10107F3DC2046FFF7BAFA03209B
:100D600011B041E62DE9F04F04460D46D21D22F0A8
:100D7000070089B0D0E900974846394603F08AFC5D
:100D80000246F80F01D02D2307E02068810701D526
:100D90002B2302E0202101EAC0038DF820300BB1A3
:100DA000012000E00020032A824601D0072A04DB4C
:100DB0002946204600F0D6F93FE12078800601D48C
:100DC0000D2500E0E569C7F30A560D2D49DA00212B
:100DD0004FEA175B08464FF00000002F00F4400078
:100DE00007DA00EB80004FF4400100EBD07001EA1D
:100DF00060008115012901DD4FF0FF3100224FEA2B
:100E0000850CBCF1180F06D31346ACF118004FF057
:100E10008052C24003E04FF4801323FA0CF30CF12C
:100E20000C0CBCF1200F04D3ACF1200C09FA0CF02F
:100E300001E007FA0CF000294FF0004801DD18B975
:100E40000FE00ED140450CD319EB02095F4121B9E7
:100E5000404502D19F4329EA0209BBEB175F00D04E
:100E6000761C2088000502D57B48784402E07A4849
:100E70007844193808AA302302F80A30037C0AF1B2
:100E80000101002E0AF1020A53546A4602DC4FF0B7
:100E9000300101E04FF031014FF001088DF80010F2
:100EA00002D0A6F2FF3603E059EA470100D06B4EAC
:100EB000002D02DC2178090704D54FF002082E210D
:100EC0008DF80110C44600210BE0C7F303433F0136
:100ED000C35C491C6D1E02F80830052908F10108A1
:100EE00001DA002DF1DC00210CE000EB1973491C44
:100EF0001B786D1E082902F808304FEA091908F11D
:100F0000010801DA002DF0DC21688B0602D516E01D
:100F1000A8F10108E04505DD02EB080313F8013CE8
:100F2000302BF5D0B8F1000F09DD02EB080313F800
:100F3000013C2E2B03D1090701D4A8F10108002D93
:100F400005DD3E2102F808106D1E08F10108407C05
:100F5000002E02F8080008F1010804DA2D2076427C
:100F600002F8080002E02B2002F808000A214FF4E2
:100F70007A70864208F101080BDB96FBF0F3303300
:100F800002F8083096FBF0F308F1010800FB136645
:100F900001E0642E0CDB642096FBF0F3303302F8A2
:100FA000083096FBF0F308F1010800FB136601E03E
:100FB0000A2E06DB96FBF1F0303002F8080008F14B
:100FC000010896FBF1F001FB1060303002F80800D8
:100FD000A16908F1010808EB050202EB0A00081AF2
:100FE000A0612078C00602D42046FFF75CF9216A90
:100FF00008AE01EB0A00206204E0D4E9012116F8F2
:10100000010B9047BAF1010AF7D22078C00602D549
:101010002046FFF748F96E4609E016F8010B3E2816
:101020000FD0D4E901219047206A401C2062B8F11A
:101030000108F2D22046FFF74CF909B00320BDE8C1
:10104000F08F206A2844206203E0D4E90121302097
:1010500090476D1EEBD3F8E71239000002FCFFFF4A
:1010600010B5436913B1AFF3008001E0FFF754F905
:10107000012010BD127800F124010A7000224A708C
:101080000122EDE711684FF0FF32E9E710B543693F
:1010900013B1AFF3008001E0FFF7D6F9012010BDD6
:1010A000128800F1240182840022C2840122EDE72B
:1010B00011684FF0FF32E9E72DE9F04116460C4682
:1010C000054600F043F8036893F80101012807D0B2
:1010D000FF2C12D8185D80B101202C70BDE8F08182
:1010E000D3F807013246214603F20713C7182846F2
:1010F000BC46BDE8F041002360474FF0FF30EDE70C
:10110000754600F0EBF8AE4605006946534620F000
:101110000700854618B020B5FFF79AF8BDE82040D3
:101120004FF000064FF000074FF000084FF0000BA3
:10113000AC46ACE8C009ACE8C009ACE8C009ACE812
:10114000C00921F007018D467047000010B500F07E
:1011500005F8001D10BD00BFA13500000048704714
:10116000380000202DE9F0411F460446032601689F
:10117000072A01F4006004DB08B116A505E016A5F6
:1011800003E008B115A500E015A521F010002060CE
:10119000A069C01EA0610FB1401EA0612046FFF7EC
:1011A00082F84FB1D4E9012138469047206A401CAB
:1011B0002062C01C206206E0206AFAE7D4E901211F
:1011C00015F8010B9047761EF8D22046FFF781F8FC
:1011D000BDE8F0814E414E006E616E00494E460002
:1011E000696E66002DE9F047814616468AB035489B
:1011F00078440DC88DE80D0032487844801C03AC5B
:101200000DC884E80D0041F69B300844372190FB5F
:10121000F1F290FBF1F5A5F1800501FB12041B3CF6
:1012200002D56442012000E00020DFF898A080464B
:101230000027FA44AAF1BE0A0EE0E0070AD03246BF
:10124000684607EB470101230AEB810103F0EBF845
:101250008DE8070064107F1C002CEED1194F7F44ED
:10126000AE3F19E0E80715D007EB04100DF1180A9E
:1012700090E80E008AE80E00C068F04201D198198B
:1012800008903246012306A903A803F0CCF803AB6B
:1012900083E807006D10641C002DE3D14FF00103BB
:1012A00032466946B8F1000F03A802D003F0A6F851
:1012B00001E003F0B8F8C9E90001C9F808200AB054
:1012C000BDE8F0871C36000010B50446AFF300807F
:1012D0002046BDE81040FEF7A6BF0000004870475A
:1012E000180000204FF0013C50F8042B51F8043B4B
:1012F0009A4221D1A2EB0C03934313EACC1317D1EA
:1013000050F8042B51F8043B9A4215D1A2EB0C0380
:10131000934313EACC130BD150F8042B51F8043B40
:101320009A4209D1A2EB0C03934313EACC13DBD00E
:101330004FF00000704700BFD01A01BAB1FA81F136
:1013400001F0180122FA01F0CB40DBB2C0B2C01AA2
:10135000C1F120012CFA01F3D11A914311EAC31112
:10136000E6D1704701491820ABBEFEE72600020017
:101370007047000080B58AB000208DF827008DF8F6
:10138000260008908DF81F008DF81E008DF81C00B7
:10139000069000F071FEC82000F026FBFFE7002158
:1013A0000591084600F04AFF44F67600C0F60000BA
:1013B00000F032FF0598012100F040FF44F6B00034
:1013C000C0F6000000F028FF05988DF827008DF882
:1013D0001E0040F27800C2F2000001F0D9F90028A6
:1013E00040F02782FFE700208DF82600FFE79DF8F8
:1013F000260004281CDCFFE79DF8262040F20000B0
:10140000C2F20000805C40F27801C2F20001895C07
:10141000884206D1FFE79DF8270001308DF82700AC
:10142000FFE7FFE79DF8260001308DF82600DEE794
:101430009DF82700052800F0F481FFE700208DF8D3
:101440002600FFE79DF82600042800F38A80FFE7C6
:101450009DF8260000EB800140F28000C2F20000FF
:10146000405C40F27801C2F200010978884271D1F3
:10147000FFE79DF8260000EB800140F28000C2F2F9
:1014800000000844407840F27801C2F20001497837
:1014900088425FD1FFE79DF8260000EB800140F213
:1014A0008000C2F200000844807840F27801C2F265
:1014B0000001897888424DD1FFE79DF8260000EBB6
:1014C000800140F28000C2F200000844C07840F27F
:1014D0007801C2F20001C97888423BD1FFE79DF84C
:1014E000260000EB800140F28000C2F200000844B8
:1014F000007940F27801C2F200010979884229D1CD
:10150000FFE700F0B9FD00210491084600F096FEC7
:1015100044F67600C0F6000000F07EFE049801213B
:1015200000F08CFE44F6BC00C0F6000000F074FE33
:101530004FF47A7000F058FA00F09EFD9DF81E00FE
:1015400001308DF81E009DF81E00012801DBFFE729
:1015500007E0FFE7FFE79DF8260001308DF8260041
:1015600070E79DF81E00002840F05A81FFE7002038
:101570008DF82600FFE79DF82600042800F32C8153
:10158000FFE79DF8260000EB800140F28000C2F2E8
:101590000000405CFF2840F01281FFE79DF8260024
:1015A00000EB800140F28000C2F200000844407865
:1015B000FF2840F00481FFE79DF8260000EB800142
:1015C00040F28000C2F2000008448078FF2840F01A
:1015D000F680FFE79DF8260000EB800140F28000D6
:1015E000C2F200000844C078FF2840F0E880FFE71E
:1015F0009DF8260000EB800140F28000C2F200005E
:1016000008440079FF2840F0DA80FFE700200890C6
:10161000FFE70898042815D8FFE7089A40F27800F9
:10162000C2F20000805C9DF8261001EB810340F2BD
:101630008001C2F2000119448854FFE70898013084
:101640000890E6E700200890FFE708990020B0EB3B
:10165000D12F40F09680FFE740F20600C2F2000072
:1016600000884FF60271884243D1FFE7089948F697
:101670000000C0F6000000EBC10006A9052200F042
:10168000A3FA9DF81800FF2832D1FFE79DF8190052
:10169000FF282DD1FFE79DF81A00FF2828D1FFE78A
:1016A0009DF81B00FF2823D1FFE79DF81C00FF28B1
:1016B0001ED1FFE7089948F60000C0F6000000EBD5
:1016C000C10040F27801C2F20001082200F0E4FA01
:1016D00049F20000C0F60000039000F031FA0398D0
:1016E00040F20601C2F20001022200F0D5FA48E001
:1016F00042E0089948F20000C0F6000000EBC1008B
:1017000006A9052200F060FA9DF81800FF2832D1E2
:10171000FFE79DF81900FF282DD1FFE79DF81A007B
:10172000FF2828D1FFE79DF81B00FF2823D1FFE702
:101730009DF81C00FF281ED1FFE7089948F2000021
:10174000C0F6000000EBC10040F27801C2F20001D7
:10175000082200F0A1FA49F20000C0F60000029051
:1017600000F0EEF9029840F20601C2F200010222F6
:1017700000F092FA05E0FFE7FFE7089801300890D3
:1017800063E700F079FC00210191084600F056FD66
:1017900044F67600C0F6000000F03EFD01980121FD
:1017A00000F04CFD44F6A500C0F6000000F034FD4A
:1017B0004FF47A7000F018F900F05EFC0CE09DF830
:1017C0001F0001308DF81F00FFE7FFE79DF826009E
:1017D00001308DF82600CEE69DF81F0005281ED1A9
:1017E000FFE700F049FC00210091084600F026FDCB
:1017F00044F67600C0F6000000F00EFD00980121CE
:1018000000F01CFD44F69A00C0F6000000F004FD54
:101810004FF47A7000F0E8F800F02EFCFFE7FFE7E5
:1018200006E040F27E01C2F20001022008700EE0E4
:10183000FFE740F27E00C2F200000078022805D1E6
:10184000FFE74FF47A7000F0CFF800E0A7E50AB0A8
:1018500080BD000080B582B01420009001F010FC23
:10186000014600988DF80710032101F0BBFE02B07D
:1018700080BD000080B586B005908DF813100392EE
:101880000520042100F098F80A20802101F0AAFE2A
:1018900000208DF80B00FFE79DF80B009DF813105A
:1018A00088420EDAFFE705989DF80B10415C09208D
:1018B00002F030F9FFE79DF80B0001308DF80B00C6
:1018C000EAE70120032102F025F9FF208DF80B0043
:1018D000FFE7052001F0D4FB8DF80A009DF80B000E
:1018E00001388DF80B00FFE79DF80B1000200190E8
:1018F00049B1FFE79DF80A0000F00401012080EAE9
:1019000091000190FFE70198C0070028E1D1FFE7AF
:10191000222001F0B5FB03990870212001F0B0FBF3
:101920000399487006B080BD80B582B000208DF864
:1019300007008DF806008DF8050040F27800C2F22D
:10194000000000F025FF98BBFFE700208DF807009E
:10195000FFE79DF8070004281CDCFFE79DF807203F
:1019600040F20000C2F20000805C40F27801C2F256
:101970000001895C884206D1FFE79DF8050001302F
:101980008DF80500FFE7FFE79DF8070001308DF8AF
:101990000700DEE79DF80500052804D1FFE70220D7
:1019A0008DF8060003E001208DF80600FFE7FFE751
:1019B0009DF8060002B080BD80B582B08DF80700AA
:1019C0008DF806109DF8070001F05AFB8DF8050010
:1019D0009DF807009DF805109DF80620914302F040
:1019E00099F802B080BD000081B00090FFE7009838
:1019F00020B3FFE74EF21401CEF2000141F63F1092
:101A0000C0F2010008604EF21801CEF20001002081
:101A100008604EF21001CEF2000105200860FFE7D9
:101A20004EF21000CEF200000068C003002801D47E
:101A3000FFE7F5E7009801380090D8E701B070475C
:101A400081B00090FFE7009808B3FFE74EF2140161
:101A5000CEF20001472008604EF21801CEF20001DC
:101A6000002008604EF21001CEF20001052008604F
:101A7000FFE74EF21000CEF200000068C00300281D
:101A800001D4FFE7F5E7009801380090DBE701B0EB
:101A90007047000080B582B08DF807009DF8070000
:101AA00040F27A11C2F20001097808438DF806006D
:101AB00045F20040C4F20000012100F02FFCFFE7D6
:101AC00045F20040C4F200000121C0F2030100F021
:101AD000E5FB08B9FFE7F3E745F20040C4F2000078
:101AE0004E21002200F064FDFFE745F20040C4F201
:101AF00000008221C0F2070100F0D0FB08B9FFE727
:101B0000F3E79DF8061045F20040C4F2000000F033
:101B10006DFDFFE745F20040C4F200008421C0F2F1
:101B2000070100F0BBFB08B9FFE7F3E745F200400F
:101B3000C4F20000012100F007FC02B080BD0000EB
:101B400080B582B00190FFE742F20C00C4F20200BF
:101B50000068C00708B1FFE7F6E742F21000C4F2E0
:101B6000020000680006002803D5FFE700F084F8B3
:101B7000FFE742F21001C4F20201086840F00200DF
:101B80000860019842F21402C4F202021060086870
:101B900040F040000860FFE742F20C00C4F202008F
:101BA0000068C00708B1FFE7F6E742F21001C4F28F
:101BB0000201086820F002000860086820F0400078
:101BC000086002B080BD000083B0029001910092D5
:101BD000019818B1FFE7009808B9FFE74AE0FFE76E
:101BE00002988007B8B9FFE79DF80400800790B914
:101BF000FFE7009804280ED3FFE7029800680199D8
:101C00000860019804300190029804300290009816
:101C10000438009029E00298C007B8B9FFE79DF8A2
:101C20000400C00790B9FFE7009802280ED3FFE731
:101C3000029800880199088001980230019002986A
:101C4000023002900098023800900DE0029800786F
:101C500001990870019801300190029801300290BA
:101C6000009801380090FFE7FFE7FFE700980028A1
:101C7000B6D1FFE703B0704742F20401C4F202019B
:101C800040F22310C4F26750086048F6AB10CCF65F
:101C9000EF5008607047000080B584B00390029157
:101CA000019200200090029840B1FFE7019828B10E
:101CB000FFE79DF80400C00708B1FFE746E0FFE733
:101CC00042F20C00C4F202000068C00708B1FFE74E
:101CD000F6E742F21000C4F2020000680006002895
:101CE00003D5FFE7FFF7C8FFFFE742F21001C4F298
:101CF0000201086840F00100086000200090FFE742
:101D000000980199B0EB510F17D2FFE702980099A4
:101D100030F811000399009A21F81200FFE742F20F
:101D20000C00C4F202000068C00708B1FFE7F6E744
:101D3000FFE7009801300090E2E742F21001C4F2A0
:101D40000201086820F001000860FFE704B080BDD0
:101D500080B588B01C20012101F076F848208DF86C
:101D60001F004FF48470ADF81C00032002908DF822
:101D70001E0040F60000C4F2010007A9039100F024
:101D800037F802980399102201928DF81F204FF422
:101D9000C042ADF81C208DF81E0041F20000C4F2D4
:101DA0000100049000F024F8019A029803998DF83C
:101DB0001F204FF480720692ADF81C208DF81E0093
:101DC00040F60040C4F20100059000F011F80498BC
:101DD0004FF4005100F0EAF804984FF4804100F00D
:101DE000E5F80598069900F0E1F808B080BD00001C
:101DF00088B007900691002005900490039002900F
:101E0000019000900698C07800F00F0005900698A9
:101E1000C078C006002806D5FFE7069881780598A7
:101E200008430590FFE70698007800284BD0FFE7AD
:101E300007980068019000200390FFE703980728A7
:101E40003DD8FFE70399012088400290069800885A
:101E50000299084004900498029988422AD1FFE729
:101E600003988000029002990F208840009000990A
:101E70000198884301900598029900FA01F10198B0
:101E8000084301900698C078282806D1FFE70399F7
:101E900001208840079948610BE00698C0784828DF
:101EA00006D1FFE703990120884007990861FFE701
:101EB000FFE7FFE7FFE7039801300390BEE70198D3
:101EC00007990860FFE706980088B0F5807F50DB2F
:101ED000FFE707984068019000200390FFE7039810
:101EE000072842D8FFE7039800F108010120884045
:101EF000029006980088029908400490049802997C
:101F000088422DD1FFE703988000029002990F20AC
:101F100088400090009901988843019005980299A3
:101F200000FA01F10198084301900698C07828282A
:101F300008D1FFE7039800F10801012088400799C4
:101F40004861FFE70698C078482808D1FFE7039862
:101F500000F108010120884007990861FFE7FFE7C9
:101F6000FFE7039801300390B9E7019807994860AB
:101F7000FFE708B07047000082B00190ADF8021092
:101F800000208DF8010001988068BDF80210084219
:101F900004D0FFE701208DF8010003E000208DF858
:101FA0000100FFE79DF8010002B0704782B0019088
:101FB000ADF80210BDF802000199486102B0704707
:101FC00082B00190ADF80210BDF8020001990861DD
:101FD00002B0704781B0009000994FF6FF70088002
:101FE00000990220887000990420C87001B07047E1
:101FF00080B582B002208DF8070040F60000C4F2E0
:1020000001004FF48071FFF7B7FF90B9FFE7502050
:10201000FFF7EAFC40F60000C4F201004FF48071C3
:10202000FFF7AAFF20B9FFE701208DF80700FFE7BF
:102030001EE040F60000C4F201000821FFF79CFFFB
:1020400088B9FFE75020FFF7CFFC40F60000C4F24C
:1020500001000821FFF790FF20B9FFE700208DF86D
:102060000700FFE703E002208DF80700FFE7FFE726
:102070009DF8070002B080BD80B5012001F0A6FAEE
:102080004FF4FA60FFF7DCFC80BD000080B584B03F
:102090008DF80F0002919DF80F0000F007008DF8F9
:1020A0000F009DF80F10402040EAC100C0B201F0BF
:1020B0008DFA00200190FFE7019807280ADCFFE76E
:1020C00002980199405C01F075FAFFE70198013030
:1020D0000190F1E704B080BD80B540F27B10C2F200
:1020E0000000017841F004010170007840F0080020
:1020F00001F06CFA80BD000080B5022001F066FAA4
:102100004FF4FA60FFF79CFC80BD000080B584B0FE
:102110008DF80F009DF80F1040F27E10C2F2000003
:10212000017040F27A12C2F200020821117040F2EE
:102130007C12C2F20002002111700078022809DB33
:10214000FFE740F27C11C2F20001087840F008007D
:10215000087008E040F27C11C2F20001087840F0FB
:1021600004000870FFE740F27A10C2F20000007825
:10217000FFF790FC4FF47A70FFF736FC30200190A7
:1021800001F0BAFC41F294100290FFF759FC01985B
:1021900001F0B2FC0298FFF753FC019801F0ACFC8F
:1021A0000298FFF74DFC202001F0A6FC6420FFF709
:1021B00047FC40F27C10C2F20000007840F02000A2
:1021C00001F004FA40F27B11C2F200010420087011
:1021D000FFF782FFFFF750FF40F27D10C2F20000D0
:1021E00002210170007840F0040001F0EFF902983C
:1021F000FFF726FC40F20801C2F200010020FFF7C1
:1022000045FF40F21001C2F200010120FFF73EFF3E
:10221000FFF772FF04B080BD80B582B00190FFE788
:102220000198007838B1FFE70198411C01910078CE
:1022300001F0C0F9F4E702B080BD000080B586B0BF
:102240008DF817008DF81610542004901420039078
:1022500040200290002001909DF8160040F27E116F
:10226000C2F200010978884209DBFFE740F27E10E4
:10227000C2F20000007801388DF81600FFE79DF8E3
:1022800017009DF8162001A951F82210084440F0CB
:102290008000C0B201F09AF906B080BD86B005900A
:1022A000049100200390029001908DF8030005989E
:1022B000808A02900598008B01900198000401909B
:1022C00002980199084320F07F40039003980499F5
:1022D0000840884204D1FFE701208DF8030003E0A5
:1022E00000208DF80300FFE79DF8030006B070475B
:1022F00082B001908DF803109DF8030030B1FFE724
:102300000199088840F00100088005E001990888DB
:1023100020F001000880FFE702B0704782B0019012
:102320008DF803109DF8030030B1FFE7019908888C
:1023300040F48070088005E00199088820F48070DE
:102340000880FFE702B0704782B001908DF803105B
:102350009DF8030030B1FFE70199088840F4007050
:10236000088005E00199088820F400700880FFE7E4
:1023700002B0704780B58CB00B900A91002001909C
:10238000ADF82600ADF824000420ADF8220041F29B
:102390000020C0F27A0007900B988088ADF82600E4
:1023A000BDF8260020F03F00ADF8260002A800F09E
:1023B00067FD01980499079107994DF68362C4F26D
:1023C0001B32A1FB0221890CADF82410BDF824209A
:1023D000BDF826101143ADF82610BDF826100B9A53
:1023E00091800B9A118821F001011180ADF826002F
:1023F0000A98006848F2A061C0F2010188421ED824
:10240000FFE707980A9909684900B0FBF1F0ADF8B9
:102410002200BDF82200032804DCFFE70420ADF809
:102420002200FFE7BDF82210BDF826000843ADF8F2
:102430002600BDF8240001300B99088446E00A9874
:10244000C0884BF6FF7188420AD1FFE707980A99C6
:10245000096801EB4101B0FBF1F0ADF822000FE09B
:1024600007980A99096819225143B0FBF1F0ADF8B9
:102470002200BDF8220040F48040ADF82200FFE7C2
:10248000BDF82200000538B9FFE7BDF8220040F092
:102490000100ADF82200FFE7BDF82200BDF82610CC
:1024A000084340F40040ADF82600BDF824004FF486
:1024B0009671484344F6D351C1F26201A0FB010179
:1024C000012000EB91100B990884FFE7BDF826006E
:1024D0000B9988830B99088840F0010008800B98BD
:1024E0000088ADF82600BDF826004FF6F53108400B
:1024F000ADF826000A99888849890143BDF826006D
:102500000843ADF82600BDF826000B9908800A990B
:102510008889098908430B9908810CB080BD0000A7
:1025200080B58AB008200121049100F08DFC049947
:102530004FF4001000F06CFC09A80190FFF74AFD71
:102540000199C020ADF8240003208DF826001C203E
:102550008DF8270040F60040C4F20100FFF748FC68
:1025600005A8029000F04CF802990020ADF8180080
:102570004BF6FF72ADF81A20ADF81C004FF48060E6
:10258000ADF81E004FF48040ADF8200048F2A06086
:10259000C0F20100059045F20040C4F20000039033
:1025A000FFF7E8FE03980499FFF7A2FE0AB080BD8A
:1025B00082B001908DF803108DF802209DF8020082
:1025C00038B1FFE79DF8030040F001008DF80300EB
:1025D00006E09DF8030000F0FE008DF80300FFE721
:1025E0009DF803000199088202B0704782B0019003
:1025F0008DF803109DF803000199088202B070471E
:1026000081B00090009941F2883008600099002064
:102610008880009A4BF6FF71D1800099088100995B
:10262000488100994FF48040888101B070470000D4
:1026300080B584B0039000218DF809100D2001F0C1
:1026400069FA039993200870039920204870039B2E
:10265000694601A808600C200222194600F024F9FE
:102660008DF80B009DF80B0038BBFFE700208DF8BC
:102670000A00FFE79DF80A00032810DCFFE7039833
:102680009DF80A10415C9DF8090048408DF809004A
:10269000FFE79DF80A0001308DF80A00EAE79DF88F
:1026A000090003999DF80A20895C884204D0FFE75D
:1026B00002208DF80B00FFE7FFE79DF80B0004B048
:1026C00080BD000080B584B050208DF80800002047
:1026D0008DF8090002A80190821C0221FFF7CAF8B8
:1026E000019B694603A808600C200422194600F0EB
:1026F000DBF804B080BD000080B586B00820012161
:1027000000F0A2FB4FF480500290ADF814000320BB
:102710008DF8160010208DF8170040F60040C4F226
:102720000100039005A90191FFF762FB019903984D
:102730004FF400620492ADF81420FFF759FB0299A0
:102740000398FFF73DFC03980499FFF739FC00F06C
:1027500067F800F05FF82A208D2101F0DBF92B20CB
:102760003E2101F0D7F92D201E2101F0D3F92C20B4
:10277000002101F0CFF91520402101F0CBF9112003
:102780003D2101F0C7F9FFF765F806B080BD0000F4
:1027900080B582B00190FFF795FF0199262000F0E7
:1027A00011F88DF803009DF8030030B9FFE7019898
:1027B000FFF73EFF8DF80300FFE79DF8030002B02E
:1027C00080BD000080B586B08DF8170004910D2003
:1027D000072101F09FF99DF8170004990870049BE8
:1027E000694602A808600C200122194600F05CF836
:1027F0008DF80F009DF80F0020B9FFE70298102810
:1028000004D0FFE702208DF80F00FFE79DF80F00CE
:1028100006B080BD80B501200F2101F07BF980BD9D
:1028200080B588B009200121019100F00DFB0199CC
:102830004FF4804000F0ECFA4FF46040ADF81C001B
:1028400018208DF81F0003208DF81E0040F6004070
:10285000C4F2010007A9FFF7CBFA1020ADF814006D
:102860000020ADF808004FF48271ADF80A10ADF801
:102870000C00ADF80E00ADF810004FF40071ADF88B
:102880001210ADF816000720ADF8180043F600004E
:10289000C4F20000009002A900F036FE00980199F1
:1028A00000F0F0FD08B080BD80B58CB0DDF838C018
:1028B0008DF82F000A918DF82720089302208DF8BB
:1028C0001F0000208DF81E008DF81D009DF82F00C0
:1028D000014604910C280BD0FFE704980E280ED176
:1028E000FFE712208DF81E0010208DF81D0007E074
:1028F00077208DF81E0030208DF81D0000E0FFE7E6
:102900009DF81E0040F08001022001F003F9042030
:1029100080210291FFF750F802990A2000F062FE30
:1029200001200021039101F0F5F803980590FFE7DD
:1029300005989DF8271088420BD2FFE70A98059961
:10294000415C092001F0E6F8FFE7059801300590A9
:10295000EEE79DF82F10012001F0DCF89DF82F0024
:102960000C2805D1FFE70D20802100F03BFEFFE79A
:102970004FF4FA600590FFE7042000F081FB8DF82A
:102980001B00059801380590FFE70599002001908C
:1029900089B1FFE79DF81B100020C907019051B9CC
:1029A000FFE79DF81B009DF81D100840B0FA80F06D
:1029B00040090190FFE70198C0070028DCD1FFE73C
:1029C0000D208021FEF7F8FF0598002867D0FFE76B
:1029D000062000F055FB10F01B0F5BD1FFE7002035
:1029E0008DF81F009DF81B009DF81E100840C007C1
:1029F00020B1FFE701208DF81F00FFE79DF82F00B1
:102A00000C2846D1FFE70A2000F03AFB8DF81B00A6
:102A10000C2000F035FB00F007008DF81C009DF83D
:102A20001C0050B1FFE79DF81B109DF81C0000EB47
:102A3000C10008380E99086005E09DF81B00C00031
:102A40000E990860FFE79DF81B0020B9FFE7012001
:102A50008DF81B00FFE79DF81B00112804DBFFE742
:102A600010208DF81B00FFE700200590FFE7059878
:102A70009DF81B1088420BD2FFE7092000F000FBF5
:102A80000899059A8854FFE7059801300590EEE70C
:102A9000FFE703E002208DF81F00FFE7FFE79DF846
:102AA0001F000CB080BD000080B58AB000208DF8FA
:102AB00017008DF81600FFF705FE40F27800C2F20D
:102AC0000000FFF765FE002840F00A81FFE70020C4
:102AD0008DF81700FFE79DF81700042864DCFFE776
:102AE0009DF8170000EB800140F28000C2F2000068
:102AF000405C40F27801C2F20001097888424CD172
:102B0000FFE79DF8170000EB800140F28000C2F261
:102B100000000844407840F27801C2F20001497890
:102B200088423AD1FFE79DF8170000EB800140F2A0
:102B30008000C2F200000844807840F27801C2F2BE
:102B400000018978884228D1FFE79DF8170000EB43
:102B5000800140F28000C2F200000844C07840F2D8
:102B60007801C2F20001C978884216D1FFE79DF8CA
:102B7000170000EB800140F28000C2F20000084420
:102B8000007940F27801C2F200010979884204D14B
:102B9000FFE701208DF81600FFE7FFE79DF817001B
:102BA00001308DF8170096E79DF81600012878D1BE
:102BB000FFE7FFF761FA002104910846FFF73EFBAB
:102BC00044F60210C0F60000FFF726FB049801212E
:102BD000FFF734FB44F66700C0F60000FFF71CFB6C
:102BE00040F64001C4F2000140F2726008804FF4E8
:102BF000FA60FEF7F9FEFFF73FFA049840F28412FC
:102C0000C2F20002052111702421C4F200010880E3
:102C1000FFE740F28410C2F2000090F900000128A2
:102C20002DDBFFE7002102910846FFF707FB44F682
:102C3000E900C0F60000FFF7EFFA02980121FFF764
:102C4000FDFA44F69600C0F60000FFF7E5FA40F200
:102C50008410C2F2000090F9002044F66001C0F632
:102C6000000106A80390FDF705FB0398FFF7D4FACF
:102C700044F62110C0F60000FFF7CEFAC9E740F68F
:102C80004001C4F2000101914FF4667008804FF4D6
:102C9000FA70FEF7A9FEFFF7EFF90199002008800E
:102CA0001DE0FFF7E9F9002100910846FFF7C6FA99
:102CB00044F60210C0F60000FFF7AEFA00980121BA
:102CC000FFF7BCFA44F64300C0F60000FFF7A4FA91
:102CD0004FF4FA60FEF788FEFFF7CEF9FFE7FFE753
:102CE0000AB080BD80B58CB004200121039100F0B2
:102CF0008FF86420ADF8240043F63F00ADF82800BB
:102D000000200090ADF82A00ADF8260040F6000043
:102D1000C4F20000019009A900F012FE0198039985
:102D200000F060FD00990198039A038843F00103C5
:102D300003806023ADF81430ADF81620ADF81C10F8
:102D4000ADF81A1005A900F063FD01980821029161
:102D500000F0D6FD0298039900F076F84FF4007069
:102D6000ADF8100018208DF8130002208DF8120025
:102D700040F60040C4F2010004A9FFF739F80CB096
:102D800080BD000080B582B08DF807009DF8070077
:102D900040F00400FEF77EFE14200090FEF750FE87
:102DA0009DF8070000F0FB00FEF774FE0098FEF7A8
:102DB00047FE02B080BD000080B582B08DF80700EC
:102DC000FFE743F60000C4F20000022100F070FBB0
:102DD00008B9FFE7F5E79DF8071043F60000C4F2D5
:102DE000000000F087FBFFE743F60000C4F200009C
:102DF000012100F05DFB08B9FFE7F5E743F60000AD
:102E0000C4F2000000F070FBC0B202B080BD000050
:102E100082B001908DF803109DF8030048B1FFE7E0
:102E2000019A41F21C01C4F20201086810430860D3
:102E300008E0019A41F21C01C4F2020108689043C3
:102E40000860FFE702B0704782B001908DF8031070
:102E50009DF8030048B1FFE7019A41F21801C4F25E
:102E6000020108681043086008E0019A41F2180165
:102E7000C4F20201086890430860FFE702B070479F
:102E800086B005900020049003900290019041F2DA
:102E90000400C4F20200006800F00C0004900498E2
:102EA000009040B1FFE7009804280BD0FFE700989E
:102EB00008280ED047E0059941F20020C0F27A00C0
:102EC000086047E0059941F20020C0F27A000860EE
:102ED00040E041F20400C4F20200016801F4701104
:102EE0000391006800F4803002900399022000EB07
:102EF00091400390029848B9FFE7039840F600110B
:102F0000C0F23D014843059908601BE041F204000E
:102F1000C4F2020000688003002809D5FFE7039887
:102F200040F60011C0F23D0148430599086008E0F1
:102F3000039841F20021C0F27A01484305990860E4
:102F4000FFE7FFE706E0059941F20020C0F27A00B2
:102F50000860FFE741F20400C4F20200016801F0DA
:102F6000F0010491049909090491049A44F62C0192
:102F7000C0F600018A5C0192059B1A68DDF804C066
:102F800022FA0CF25A60026802F4E0620492049A97
:102F9000120A0492049A8A5C0192059B5A68DDF831
:102FA00004C022FA0CF29A60026802F460520492A1
:102FB000049AD20A0492049A895C0191059A516894
:102FC000019BD940D160006800F44040049004980F
:102FD000800B0490049944F62800C0F60000405C81
:102FE00001900599C868019AB0FBF2F0086106B03B
:102FF0007047000080B582B000208DF807008DF882
:103000000700FFE79DF80700312837DCFFE740F2B3
:103010000600C2F2000000884FF60271884213D108
:10302000FFE79DF8071048F60000C0F6000040EAF0
:10303000C10001EB810240F28001C2F200011144A3
:103040000522FEF7C1FD12E09DF8071048F20000CE
:10305000C0F6000040EAC10001EB810240F28001AD
:10306000C2F2000111440522FEF7AEFDFFE7FFE7C3
:103070009DF8070001308DF80700C3E702B080BD5E
:1030800080B584B08DF80F0040F60040C4F2010016
:1030900002904FF480510191FEF788FF9DF80F10C8
:1030A000802061F34600FFF787FE0020FFF784FED3
:1030B0000199024602988DF80E20FEF781FF9DF8D7
:1030C0000E0004B080BD000080B588B000208DF8EF
:1030D0001F008DF81E008DF81D000690FEF7CCFF36
:1030E000C820FEF781FCFFE7002105910846FFF7A5
:1030F000A5F844F6CB00C0F60000FFF78DF8059860
:103100000121FFF79BF844F6B000C0F60000FFF77E
:1031100083F805988DF81F008DF81D0040F27800A7
:10312000C2F20000FFF734FB002840F09B81FFE76C
:1031300000208DF81E00FFE79DF81E0004281CDC0F
:10314000FFE79DF81E2040F20000C2F20000805C04
:1031500040F27801C2F20001895C884206D1FFE7A3
:103160009DF81F0001308DF81F00FFE7FFE79DF875
:103170001E0001308DF81E00DEE79DF81F000528B7
:1031800000F06881FFE700208DF81E00FFE79DF842
:103190001E00042800F33B81FFE79DF81E0000EBB2
:1031A000800140F28000C2F20000405C40F27801F1
:1031B000C2F200010978884240F02281FFE79DF8C1
:1031C0001E0000EB800140F28000C2F200000844C3
:1031D000407840F27801C2F200014978884240F01C
:1031E0000F81FFE79DF81E0000EB800140F2800098
:1031F000C2F200000844807840F27801C2F2000177
:103200008978884240F0FC80FFE79DF81E0000EBC3
:10321000800140F28000C2F200000844C07840F211
:103220007801C2F20001C978884240F0E980FFE7E6
:103230009DF81E0000EB800140F28000C2F2000009
:103240000844007940F27801C2F20001097988420D
:1032500040F0D680FFE79DF81E0000EB800240F2B0
:103260008001C2F20001FF2088549DF81E2002EB6D
:1032700082020A4450709DF81E2002EB82020A442A
:1032800090709DF81E2002EB82020A44D0709DF8D7
:103290001E2002EB82021144087140F20600C2F2C5
:1032A000000000884FF60271884240D1FFE740F2EB
:1032B0000601C2F200014FF60170088048F20000DA
:1032C000C0F60000FEF73CFC00200690FFE70698E1
:1032D000042816D8FFE7069948F20000C0F600005F
:1032E00000EBC10001EB810240F28001C2F200015B
:1032F00011440622FEF7D0FCFFE706980130069045
:10330000E5E749F20000C0F600000490FEF718FC63
:10331000049840F20601C2F200010222FEF7BCFC52
:1033200048F60000C0F60000FEF70AFC3FE040F25D
:103330000601C2F200014FF60270088048F6000054
:10334000C0F60000FEF7FCFB00200690FFE70698A1
:10335000042816D8FFE7069948F60000C0F60000DA
:1033600000EBC10001EB810240F28001C2F20001DA
:1033700011440622FEF790FCFFE706980130069004
:10338000E5E749F20000C0F600000390FEF7D8FB25
:10339000039840F20601C2F200010222FEF77CFC13
:1033A00048F20000C0F60000FEF7CAFBFFE7FEF798
:1033B00063FE002102910846FEF740FF44F68600B6
:1033C000C0F60000FEF728FF02980121FEF736FF45
:1033D00044F6A500C0F60000FEF71EFF4FF47A7019
:1033E000FEF702FBFEF748FE9DF81D0001308DF848
:1033F0001D009DF81D00012801DBFFE707E0FFE746
:10340000FFE79DF81E0001308DF81E00BFE69DF815
:103410001D00F0B9FFE7FEF72FFE002101910846DD
:10342000FEF70CFF44F67600C0F60000FEF7F4FE4F
:1034300001980121FEF702FF44F62D10C0F60000AE
:10344000FEF7EAFE4FF47A70FEF7CEFAFEF714FEAE
:10345000FFE706E040F27E01C2F2000100200870A2
:103460000DE0FFE740F27E00C2F20000007828B9CC
:10347000FFE74FF47A70FEF7B7FA00E034E608B0E1
:1034800080BD000082B001908DF803109DF803000C
:1034900030B1FFE70199088840F04000088005E05E
:1034A0000199088820F040000880FFE702B07047CB
:1034B00082B00190ADF8021000208DF80100019853
:1034C0000089BDF802100840000420B1FFE7012088
:1034D0008DF8010003E000208DF80100FFE79DF862
:1034E000010002B07047000081B000900098808910
:1034F00001B0704782B00190ADF80210BDF8020033
:103500000199888102B0704783B002900191002038
:10351000ADF8020002980088ADF80200BDF8020084
:1035200000F44150ADF80200019908884A88104320
:103530008A881043CA8810430A8910434A89104375
:103540008A891043C9890143BDF802000843ADF8D8
:103550000200BDF80200029908800299888B20F4CD
:10356000006088830198008A0299088203B070473E
:1035700080B582B08DF807008DF806109DF8070021
:1035800000F0F0008DF805009DF8070000018DF8AF
:1035900004009DF805009DF80610084300F0ACFA01
:1035A0009DF804009DF80610084300F0A5FA02B04B
:1035B00080BD000080B582B08DF807009DF807003F
:1035C0000121FFF7D5FF02B080BD000080B582B0B9
:1035D0008DF807009DF807000021FFF7C9FF02B032
:1035E00080BD000080B582B08DF807008DF8061010
:1035F0009DF80700FFF744FD8DF805009DF80700D2
:103600009DF805109DF80620114300F083FA02B0E2
:1036100080BD000080B500F001F880BD84B00020BE
:103620000390029041F20001C4F20201086840F4E4
:1036300080300860FFE741F20000C4F20200006839
:1036400000F400300290039801300390FFE70299E4
:103650000020019039B9FFE70398B0F5A06018BFCA
:1036600001200190FFE70198C0070028E3D1FFE7A0
:1036700041F20000C4F2020000688003002803D574
:10368000FFE70120029002E000200290FFE702988D
:10369000012851D1FFE742F20001C4F2020108689B
:1036A00040F010000860086820F007000860086813
:1036B00040F00200086041F20401C4F202010091EE
:1036C0000868086008680860086840F4806008605E
:1036D000086820F47C100860086840F4E81008606E
:1036E00041F20001C4F20201086840F080700860F5
:1036F000FFE741F20000C4F20200006880010028E8
:1037000001D4FFE7F5E741F20401C4F202010868C1
:1037100020F003000860086840F002000860FFE73E
:1037200041F20400C4F20200006800F00C00082816
:1037300001D0FFE7F4E700E0FFE704B070470000C6
:1037400080B541F20002C4F20202106840F00100AC
:10375000106041F20401C4F2020108680023CFF6B0
:10376000FF031840086010684FF6FF73CFF6F6634A
:1037700018401060106820F480201060086820F461
:10378000FE00086041F20801C4F202014FF41F007C
:103790000860FFF73FFF4EF60851CEF200014FF0F0
:1037A0000060086080BD00001020C4F200000088A6
:1037B000C007B0B1FFE70C20C4F200000088C007CA
:1037C00078B1FFE71021C4F20001088820F0010061
:1037D000088040F28411C2F20001087801380870B4
:1037E000FFE7704782B001908DF803109DF8030049
:1037F00030B1FFE70199088840F00100088005E03A
:103800000199088820F001000880FFE702B07047A6
:1038100084B0039002910020ADF80600ADF80400DA
:10382000ADF802000399088C20F4805008840398B6
:10383000008CADF8040003988088ADF8020003986E
:10384000808BADF80600BDF8060020F4E040ADF82E
:103850000600BDF8060020F44070ADF8060002989E
:103860000188BDF8060040EA0120ADF80600BDF869
:10387000040020F40050ADF8040002980189BDF85E
:10388000040040EA0130ADF8040002984188BDF818
:10389000040040EA0130ADF80400039842F600410C
:1038A000C4F20101884208D0FFE7039843F20041C7
:1038B000C4F2010188420FD1FFE7BDF8020020F4F5
:1038C0008040ADF8020002988189BDF8020040EA0C
:1038D0008110ADF80200FFE7BDF80200039988806F
:1038E000BDF80600039988830298C0880399A1F85F
:1038F0004000BDF804000399088404B0704700003C
:1039000082B00190ADF802100020ADF800000198DF
:10391000808BADF80000BDF8000020F40060ADF829
:103920000000BDF80210BDF8000040EA0120ADF82B
:103930000000BDF800000199888302B070470000C4
:1039400083B0029001910020ADF802000298008837
:10395000ADF80200029842F60041C4F2010188422B
:1039600025D0FFE7029843F20041C4F201018842EA
:103970001DD0FFE70298B0F1804F18D0FFE7029802
:1039800040F20041C4F20001884210D0FFE70298E3
:1039900040F60001C4F20001884208D0FFE7029817
:1039A00040F60041C4F2000188420ED1FFE7BDF8A5
:1039B000020020F07000ADF8020001984188BDF8C7
:1039C00002000843ADF80200FFE7029841F200014F
:1039D000C4F20001884216D0FFE7029841F200418C
:1039E000C4F2000188420ED0FFE7BDF8020020F4C7
:1039F0004070ADF802000198C188BDF8020008438C
:103A0000ADF80200FFE7BDF80200029908800198B6
:103A10008088029988850198008802990885029813
:103A200042F60041C4F20101884220D0FFE702982B
:103A300043F20041C4F20101884218D0FFE7029826
:103A400044F20001C4F20101884210D0FFE702985D
:103A500044F20041C4F20101884208D0FFE7029815
:103A600044F60001C4F20101884205D1FFE7019844
:103A7000007A02990886FFE702990120888203B044
:103A80007047000041F21C01C4F20201086840F0D6
:103A9000010008602C21C4F2000142F20F7008807E
:103AA0002421C4F20001002008802821C4F2000172
:103AB00041F61F4008800C21C4F20001012008805B
:103AC0001022C4F20002118821F0010111804FF090
:103AD000804108801421C4F2000108804EF20011D8
:103AE000CEF200014FF0805008604EF21C41CEF241
:103AF000000140200870704780B582B08DF8070043
:103B00009DF80700FDF7C6FF9DF80700FFF73AF99B
:103B100002B080BD80B584B08DF80F008DF80E1016
:103B200040F60040C4F2010002904FF48051019130
:103B3000FEF73CFA9DF80F107E2000EA4100FFF7E7
:103B40003BF99DF80E00FFF737F901990298FEF74F
:103B500037FA04B080BD000080B592B0002011900B
:103B6000FFF7C0F840F64001C4F200014FF4667060
:103B70000880FEF7EDF8FEF7D3FC02200B90FEF76D
:103B8000C5FAFEF779FAFEF7B7FDFFF77BFF0B9A50
:103B900040F28611C2F200010C9149F20000C0F619
:103BA0000000FEF711F80C9800884FF60271884269
:103BB00008D1FFE740F20601C2F200014FF60270A1
:103BC000088007E040F20601C2F200014FF60170E2
:103BD0000880FFE7FFF70EFA6420FDF705FF40F6C7
:103BE0004001C4F2000100200880FFE7FDF79CFEC1
:103BF000014640F27D00C2F2000001700078022808
:103C000008D0FFE740F27E00C2F2000000780028F2
:103C100052D0FFE740F27F00C2F20000017801318C
:103C200001700078012808D0FFE740F27E00C2F260
:103C300000000078012803D1FFE7FDF79BFB3AE085
:103C400040F27F00C2F200000078022808D0FFE7AF
:103C500040F27E00C2F200000078022803D1FFE7A4
:103C6000FFF732FA26E040F27F01C2F200010020A5
:103C70000A90087040F27E01C2F200010870FEF75F
:103C8000FBF90A990846FEF7D9FA44F60210C0F685
:103C90000000FEF7C1FA0A980121FEF7CFFA44F6B8
:103CA000DA00C0F60000FEF7B7FA4FF44870FDF7EF
:103CB0009BFEFFE7FFE70CE040F27D00C2F2000050
:103CC0000078012803D1FFE7FEF7EEFE00E0FFE7F2
:103CD000FFE740F27F00C2F200000078E8B9FFE79A
:103CE00040F27E00C2F200000078B0B9FFE7002188
:103CF00009910846FEF7A2FA44F60210C0F6000049
:103D0000FEF78AFA09980121FEF798FA44F6DA00DC
:103D1000C0F60000FEF780FAFFE7FEF769F9A8BBDE
:103D2000FFE7FFE7FEF764F908B9FFE7FAE740F2BB
:103D30008011C2F20001079108680130086000217B
:103D400006910846FEF77AFA44F61210C0F6000013
:103D5000FEF762FA06980121FEF770FA44F6540065
:103D6000C0F60000FEF758FA0798026844F63C01D6
:103D7000C0F600010DA80890FCF77CFA0898FEF741
:103D80004BFA4FF4FA60FDF72FFEFFE7FEF730F92C
:103D9000012840F08080FFE740F28010C2F200006E
:103DA0000068002877D0FFE7FFE7FEF721F9012838
:103DB00001D1FFE7F9E740F28011C2F20001086883
:103DC0000138086040F64001C4F2000140F2726020
:103DD00008804FF4FA60FDF707FEFEF74DF940F258
:103DE0008411C2F20001052008702421C4F20001F0
:103DF00000200880FFE740F28410C2F2000090F932
:103E00000000012826DBFFE7002104910846FEF7A9
:103E100015FA44F6F900C0F60000FEF7FDF9049823
:103E20000121FEF70BFA44F65400C0F60000FEF73D
:103E3000F3F940F28010C2F20000026844F63C013F
:103E4000C0F600010DA80590FCF714FA0598FEF7DE
:103E5000E3F9D0E740F64001C4F2000103914FF4CA
:103E6000667008804FF4FA70FDF7BEFDFEF704F9A6
:103E700003990020088040F28010C2F20000006820
:103E8000002807DCFFE740F28011C2F200010020A9
:103E90000860FFE7FFE740F28010C2F20000006810
:103EA000B8B9FFE741F20000C4F2010002904FF4FC
:103EB0000051FEF77BF802984FF48041FEF776F848
:103EC00040F60040C4F201004FF48071FEF76EF836
:103ED00016E041F20000C4F2010001904FF40051DD
:103EE000FEF76EF801984FF48041FEF769F840F64E
:103EF0000040C4F201004FF48071FEF761F8FFE763
:103F000074E65FEA400C08BF91F0000F4FEA8C2383
:103F10004FEAC12243EA51514FEA1C5018BF00F545
:103F2000F0404FEA300018BF41F000415FEA6C5C9E
:103F300000F02980BCF1FF3F08BF40F0804070478F
:103F4000130C06BF12044FF0100C4FF0000C130EB0
:103F500004BF12020CF1080C130F04BF12010CF184
:103F6000040C930F04BF92000CF1020CD30F04BF9A
:103F700052000CF1010C11464FF00002A0F11F009D
:103F8000A0EB0C00704711F0004F08BF704731F0F4
:103F900000413FF4D5AF0B0C06BF09044FF0100CE5
:103FA0004FF0000C0B0E04BF09020CF1080C0B0FB4
:103FB00004BF09010CF1040C8B0F04BF89000CF144
:103FC000020CCB0F04BF49000CF1010CCCF1200313
:103FD00022FA03F341EA030102FA0CF2A0EB0C000F
:103FE00000F101007047000023F07F4720F07F4C74
:103FF00080EA030000F00040ACEB070303F57C53BC
:1040000003F1FF032DE9804909B44FEA144324EA80
:1040100003484FEA154B25EA0B4E0FF2042606EB38
:1040200013273E7803FB0667C7F5000707FB06F674
:104030004FEAD64606F102064FEA543707FB066CF4
:10404000CCF1005C4FEA1C472CEA074C0CFB06F550
:1040500007FB06F404EB15464FEA961649085FEA9B
:10406000320234BF00204FF000404FEAD13706FB48
:1040700007FC4FEA1C4C0CFB0BF7D21B03FB0CF7A5
:1040800061EB07010CFB0EF7B0EB074072EB174238
:104090000CFB08F734BFA2EB0742B2EB074261EB1F
:1040A00017414FEA0C444FEA910706FB07FC4FEA21
:1040B0001C4C0CFB0BF7B0EBC74072EB573203FB09
:1040C0000CF734BFA2EBC742B2EBC74261EB5731EA
:1040D0000CFB0EF7B0EBC70072EB57720CFB08F746
:1040E00034BFA2EBC702B2EBC70261EB57714FEAD4
:1040F000816141EA92114FEA826242EA90124FEAEC
:10410000806004EBCC04039F4FEAD13706FB07FC29
:104110004FEA1C4C0CFB0BF7D21B03FB0CF761EBBB
:1041200007010CFB0EF7B0EB074072EB17420CFBDC
:1041300008F734BFA2EB0742B2EB074261EB17412D
:104140004FEA8C5504EB9C244FEA910706FB07FCD1
:104150004FEA1C4C0CFB0BF7B0EBC74072EB57322D
:1041600003FB0CF734BFA2EBC742B2EBC74261EBD3
:1041700057310CFB0EF7B0EBC70072EB57720CFB1C
:1041800008F734BFA2EBC702B2EBC70261EB57716D
:104190004FEA816141EA92114FEA826242EA90124B
:1041A0004FEA806015EB4C2544F100044FEAD1370B
:1041B00006FB07FC4FEA1C4C0CFB0BF7D21B03FB66
:1041C0000CF761EB07010CFB0EF7B0EB074072EB4D
:1041D00017420CFB08F734BFA2EB0742B2EB0742D1
:1041E00061EB17414FEA813141EA92414FEA823255
:1041F00042EA90424FEA80304FEA0C7615EB1C15EC
:1042000044F1000448EA03434EEA0B484FF0000E25
:10421000B2EB080C71EB030724BF624639464EEB44
:104220000E0E4FF0000B0018524149414BEB0B0BA7
:10423000B2EB080C71EB03077BF1000B24BF624665
:1042400039464EEB0E0E4FF0000B0018524149411B
:104250004BEB0B0BB2EB080C71EB03077BF1000B84
:1042600024BF624639464EEB0E0E51EA020718BFD4
:1042700046F0010616EB0E7655F1000254F10001EE
:1042800003D5BDE88901BDE80088BDE88901BDE826
:104290000048B619524141EB0101A3F101037047F7
:1042A00080807F7E7D7C7B7A797877767675747373
:1042B000727171706F6E6E6D6C6C6B6A6A69686832
:1042C000676666656464636362616160605F5F5EC8
:1042D0005E5D5D5C5C5B5B5A5A595958585757563E
:1042E00056555555545453535252525151505050A3
:1042F0004F4F4F4E4E4D4D4D4C4C4C4B4B4B4A4AF5
:104300004A49494948484847474747464646454538
:104310004544444444434343434242424241414171
:104320009C46002B30D477002BD04FEA37071CB5C2
:1043300003B44FF010004FF01001BAF1000F06D097
:10434000BCF1000FDCBF40F0080040F008014FF066
:1043500000000FBCBDE810400BF1010BBBF1010FD9
:1043600008BF5FEA170722BF12F1010211F1010134
:104370004FF0004143F1000300F0004043EA000029
:104380007047F9D35708D0E746EA06464FEA164683
:1043900013F1400F1FDD13F1200FDFBF16430A4654
:1043A000002120335B42BED0C3F1200746EA064617
:1043B0004FEA164602FA07F746EA070622FA03F220
:1043C000C3F1200701FA07F742EA070221FA03F1D5
:1043D0004FF00003A7E746EA020646EA06464FEA20
:1043E000164646EA0106BCBF46EA0646360C4FF0C2
:1043F00000034FF000024FF0000194E72DE9804CDC
:1044000070B49A46934691E8380007C831EA400CE8
:1044100048BF34EA430C03D5FFF7E6FDFFF780FF02
:10442000F0BCBDE8008C2DE9804C70B49A469346F0
:1044300091E8380007C810F0804F08BF13F0804F94
:1044400003D100F005F8FFF76BFFF0BCBDE8008C6E
:1044500020F07F4723F07F4C80EA030000F000400B
:1044600007EB0C03A3F57C53A3F1FE0392F0000FBE
:1044700000F0B38095F0000F00F077802DE901493E
:104480004FEA114021EA00484FEA144624EA064761
:1044900000FB06FC08FB06F607FB08F818EB0648CD
:1044A0004CEB164C00FB07F718EB07484CEB17409A
:1044B0004FEA124B22EA0B4E4FEA154625EA064711
:1044C0000BFB06FC0EFB06F607FB0EFE1EEB064E74
:1044D0004CEB164C0BFB07F71EEB074E4CEB174B48
:1044E00018EB0B0840F1000018EB0E0B58EB00081E
:1044F00040F100008F1A4FF000014FF000063CBF62
:10450000C943661B14BFB5EB040C00213CBFC94373
:10451000F61B4FEA174427EA04454FEA1C472CEAEA
:10452000074C04FB076205FB07F70CFB05F616EBCF
:10453000074642EB174204FB0CFC16EB0C4642EB21
:104540001C421BEB060658EB020241414EEA8E0E5E
:1045500046EA9E0601D5BDE80189B619524141EBF4
:104560000101A3F10103BDE801894FEA144524EAE2
:1045700005464FEA114721EA074C05FB07F406FB05
:1045800007F70CFB06F111EB074144EB174405FB61
:104590000CFC11EB0C4144EB1C444FEA124722EA9D
:1045A000074C05FB07F206FB07F70CFB06F616EBBC
:1045B000074642EB174205FB0CFC16EB0C4642EBA0
:1045C0001C456A1854F1000148BF7047B6195241A2
:1045D00041EB0101A3F10103704795F0000F37D0C3
:1045E0004FEA114221EA02464FEA144724EA074CF7
:1045F00002FB07F106FB07F70CFB06F414EB07447C
:1046000041EB174102FB0CFC14EB0C4441EB1C4149
:104610004FEA154725EA074C02FB07F506FB07F7AB
:104620000CFB06F616EB074645EB174502FB0CFCA8
:1046300016EB0C4645EB1C42121951F1000148BF24
:104640007047B619524141EB0101A3F101037047D4
:104650004FEA144524EA05464FEA114721EA074C80
:1046600005FB07F106FB07F70CFB06F212EB07420E
:1046700041EB174105FB0CFC12EB0C4251EB1C41CA
:104680004FF0000648BF7047921841EB0101A3F1BB
:1046900001037047490050EAC12018BF04204A0DA9
:1046A00018BF40F0010040F2FF72B2EB515F08BF4B
:1046B00040F00200012808BF0520704730380A2862
:1046C00001D20120704700207047000010B500297A
:1046D0000AD00878002807D005487844FCF702FE85
:1046E000002801D0002010BD0248784410BD000011
:1046F000820200007A02000010B500290AD0087872
:10470000002807D005487844FCF7ECFD002801D0CC
:10471000002010BD0248784410BD00007202000065
:104720006A020000FCF7E8B9FCF71CBB00000000BF
:1047300000000000303132333435363738394142E9
:1047400043444546403058003031323334353637F3
:10475000383961626364656640307800040000089F
:1047600000000000000000020001000010303132A3
:104770003334353637383961626364656678700082
:104780003031323334353637383941424344454687
:104790005850000002400000000000A0000000008F
:1047A00005400000000000C8000000000C400000B0
:1047B0000000409C00000000194000000020BCBE2A
:1047C0000000000034400000BFC91B8E0000000440
:1047D000B5400000504BCFD06607E2CF010000008B
:1047E0006C4100003E8251AADFEEA73401000000B8
:1047F000D9420000DCB5A0E23A301F97FFFFFFFF6F
:10480000B4450000FD25A0C8E9A3C14FFFFFFFFF8D
:10481000FF3F00000000008000000000FF3F00009C
:1048200000000080000000000204060800000000F4
:10483000010203040102030406070809256420207D
:1048400020200043617264204E6F7420466F756EA5
:104850006421200050657220496E20526D3A20007C
:1048600025302E31642000446F6F7220556E6C6FBE
:10487000636B6564200041646420536C617665203D
:1048800043617264200044656C20536C617665203E
:10489000436172642000496E20004661696C757244
:1048A0006521212100537563636573732121210004
:1048B00057616974696E67202E2E2E004361726401
:1048C000205761732041646465640044656C205323
:1048D0006C617665204361726400205075742059C4
:1048E0006F7572204361726400446F6F7220576964
:1048F0006C6C20436C6F736500476F6F6420427966
:10490000650057656C636F6D6520546F20526F6F43
:104910006D0057656C636F6D20546F20526F6F6D23
:10492000005365632048757272795570004E6F743C
:10493000204164646564205965740000884A000859
:10494000000000201800000028010008A04A00080C
:104950001800002070070000440100081C0000003F
:1049600043000000F8FFFFFF0C0000000E000000F5
:104970000F0000002E0000001001000043000000A6
:10498000F8FFFFFF00404040404040404040414170
:104990004141414040404040404040404040404014
:1049A00040404040400502020202020202020202AE
:1049B00002020202022020202020202020202002AB
:1049C000020202020202909090909090101010103B
:1049D00010101010101010101010101010101010D7
:1049E000020202020202888888888888080808086B
:1049F0000808080808080808080808080808080837
:104A0000020202024000000000000000000000005E
:104A10000000000000000000000000000000000096
:104A20000000000000000000000000000000000086
:104A30000000000000000000000000000000000076
:104A40000000000000000000000000000000000066
:104A50000000000000000000000000000000000056
:104A60000000000000000000000000000000000046
:104A70000000000000000000000000000000000036
:104A800000000000000000004358442D7200FFFFAA
:104A900000191B060C1B130018180609080906004C
:0400000508000235B8
:00000001FF
